{
  "contractName": "FaucetTest",
  "abi": [
    {
      "anonymous": false,
      "inputs": [
        {
          "indexed": true,
          "internalType": "address",
          "name": "from",
          "type": "address"
        },
        {
          "indexed": false,
          "internalType": "uint256",
          "name": "amount",
          "type": "uint256"
        }
      ],
      "name": "Deposit",
      "type": "event"
    },
    {
      "anonymous": false,
      "inputs": [
        {
          "indexed": true,
          "internalType": "address",
          "name": "to",
          "type": "address"
        },
        {
          "indexed": false,
          "internalType": "uint256",
          "name": "amount",
          "type": "uint256"
        }
      ],
      "name": "Withdrawal",
      "type": "event"
    },
    {
      "inputs": [],
      "name": "destory",
      "outputs": [],
      "stateMutability": "nonpayable",
      "type": "function"
    },
    {
      "stateMutability": "payable",
      "type": "receive"
    },
    {
      "inputs": [
        {
          "internalType": "uint256",
          "name": "withdraw_amount",
          "type": "uint256"
        }
      ],
      "name": "withdraw",
      "outputs": [],
      "stateMutability": "nonpayable",
      "type": "function"
    }
  ],
  "bytecode": "0x608060405234801561001057600080fd5b50336000806101000a81548173ffffffffffffffffffffffffffffffffffffffff021916908373ffffffffffffffffffffffffffffffffffffffff1602179055506104c8806100606000396000f3fe60806040526004361061002d5760003560e01c80632e1a7d4d146100875780636bdebcc9146100b057610082565b36610082573373ffffffffffffffffffffffffffffffffffffffff167fe1fffcc4923d04b559f4d29a8bfc6cda04eb5b0d3c460751c2402c5c5cc9109c3460405161007891906103ca565b60405180910390a2005b600080fd5b34801561009357600080fd5b506100ae60048036038101906100a991906102c9565b6100c7565b005b3480156100bc57600080fd5b506100c56101ed565b005b67016345785d8a0000811115610112576040517f08c379a0000000000000000000000000000000000000000000000000000000008152600401610109906103aa565b60405180910390fd5b80471015610155576040517f08c379a000000000000000000000000000000000000000000000000000000000815260040161014c9061036a565b60405180910390fd5b3373ffffffffffffffffffffffffffffffffffffffff166108fc829081150290604051600060405180830381858888f1935050505015801561019b573d6000803e3d6000fd5b503373ffffffffffffffffffffffffffffffffffffffff167f7fcf532c15f0a6db0bd6d0e038bea71d30d808c7d98cb3bf7268a95bf5081b65826040516101e291906103ca565b60405180910390a250565b3373ffffffffffffffffffffffffffffffffffffffff1660008054906101000a900473ffffffffffffffffffffffffffffffffffffffff1673ffffffffffffffffffffffffffffffffffffffff161461027b576040517f08c379a00000000000000000000000000000000000000000000000000000000081526004016102729061038a565b60405180910390fd5b60008054906101000a900473ffffffffffffffffffffffffffffffffffffffff1673ffffffffffffffffffffffffffffffffffffffff16ff5b6000813590506102c38161047b565b92915050565b6000602082840312156102db57600080fd5b60006102e9848285016102b4565b91505092915050565b60006102ff6016836103e5565b915061030a82610400565b602082019050919050565b60006103226012836103e5565b915061032d82610429565b602082019050919050565b6000610345601b836103e5565b915061035082610452565b602082019050919050565b610364816103f6565b82525050565b60006020820190508181036000830152610383816102f2565b9050919050565b600060208201905081810360008301526103a381610315565b9050919050565b600060208201905081810360008301526103c381610338565b9050919050565b60006020820190506103df600083018461035b565b92915050565b600082825260208201905092915050565b6000819050919050565b7f2062616c616e6365206973206e6f7420656e6f75676800000000000000000000600082015250565b7f4f6e6c792072657175697265206f776e65720000000000000000000000000000600082015250565b7f746865206d617820616d6f756e7420697320302e312065746865720000000000600082015250565b610484816103f6565b811461048f57600080fd5b5056fea264697066735822122070470a547b79179d9f8175a57cc279941af0766c2db2fdd7b40d7c8a5a5a32e764736f6c63430008040033",
  "immutableReferences": {},
  "source": "// SPDX-License-Identifier: GPL-3.0\npragma solidity >=0.4.16 <=0.8.4;\n\ncontract Owner {\n    address owner;\n\n    constructor() {\n        owner = msg.sender;\n    }\n\n    modifier isOwner() {\n        require(owner == msg.sender, \"Only require owner\");\n        _;\n    }\n}\n\ncontract OwnerWithDecontruct is Owner {\n    function destory() public isOwner {\n        selfdestruct(payable(owner));\n    }\n}\n\ncontract FaucetTest is OwnerWithDecontruct {\n    event Withdrawal(address indexed to, uint256 amount);\n    event Deposit(address indexed from, uint256 amount);\n\n    function withdraw(uint256 withdraw_amount) public {\n        require(withdraw_amount <= 0.1 ether, \"the max amount is 0.1 ether\");\n        require(\n            address(this).balance >= withdraw_amount,\n            \" balance is not enough\"\n        );\n        payable(msg.sender).transfer(withdraw_amount);\n        emit Withdrawal(msg.sender, withdraw_amount);\n    }\n\n    // fallback() external payable {\n    //     emit Deposit(msg.sender, msg.value);\n    // }\n\n    receive() external payable {\n        // custom function code\n        emit Deposit(msg.sender, msg.value);\n    }\n}\n",
  "sourcePath": "/Users/zhangyu/workspace/labs/blockchain/smart_contract/masterEth/sol/contracts/Events.sol",
  "compiler": {
    "name": "solc",
    "version": "0.8.4+commit.c7e474f2.Emscripten.clang"
  },
  "schemaVersion": "3.4.1",
  "updatedAt": "2021-06-07T07:03:07.578Z",
  "devdoc": {
    "kind": "dev",
    "methods": {},
    "version": 1
  },
  "userdoc": {
    "kind": "user",
    "methods": {},
    "version": 1
  }
}