{
  "contractName": "FunctionFoo",
  "abi": [
    {
      "inputs": [],
      "stateMutability": "nonpayable",
      "type": "constructor"
    },
    {
      "inputs": [],
      "name": "destory",
      "outputs": [],
      "stateMutability": "nonpayable",
      "type": "function"
    }
  ],
  "bytecode": "0x608060405234801561001057600080fd5b50336000806101000a81548173ffffffffffffffffffffffffffffffffffffffff021916908373ffffffffffffffffffffffffffffffffffffffff16021790555060fb8061005f6000396000f3fe6080604052348015600f57600080fd5b506004361060285760003560e01c80636bdebcc914602d575b600080fd5b60336035565b005b3373ffffffffffffffffffffffffffffffffffffffff1660008054906101000a900473ffffffffffffffffffffffffffffffffffffffff1673ffffffffffffffffffffffffffffffffffffffff1614608c57600080fd5b60008054906101000a900473ffffffffffffffffffffffffffffffffffffffff1673ffffffffffffffffffffffffffffffffffffffff16fffea2646970667358221220a97680511b589f06ff0e3b670149eda1472e7b55a450b06241f5b84b3309aa1c64736f6c63430008040033",
  "immutableReferences": {},
  "source": "// SPDX-License-Identifier: GPL-3.0\npragma solidity >=0.4.16 <=0.8.4;\n\ncontract FunctionFoo {\n    address owner;\n\n    //声明构造函数, 进行相应的处理\n    constructor() {\n        owner = msg.sender;\n    }\n\n    // 添加析构函数 用于提供给合约执行,删除此合约\n\n    function destory() public {\n        require(owner == msg.sender);\n        selfdestruct((payable(owner)));\n    }\n}\n",
  "sourcePath": "/Users/zhangyu/workspace/labs/blockchain/smart_contract/masterEth/sol/contracts/FunctionFoo.sol",
  "compiler": {
    "name": "solc",
    "version": "0.8.4+commit.c7e474f2.Emscripten.clang"
  },
  "schemaVersion": "3.4.1",
  "updatedAt": "2021-06-04T01:15:27.234Z",
  "devdoc": {
    "kind": "dev",
    "methods": {},
    "version": 1
  },
  "userdoc": {
    "kind": "user",
    "methods": {},
    "version": 1
  }
}