{
  "contractName": "ModifierFunction",
  "abi": [
    {
      "inputs": [],
      "stateMutability": "nonpayable",
      "type": "constructor"
    },
    {
      "inputs": [],
      "name": "owner",
      "outputs": [
        {
          "internalType": "address",
          "name": "",
          "type": "address"
        }
      ],
      "stateMutability": "view",
      "type": "function"
    },
    {
      "inputs": [],
      "name": "destory",
      "outputs": [],
      "stateMutability": "nonpayable",
      "type": "function"
    }
  ],
  "bytecode": "0x608060405234801561001057600080fd5b50336000806101000a81548173ffffffffffffffffffffffffffffffffffffffff021916908373ffffffffffffffffffffffffffffffffffffffff1602179055506101aa806100606000396000f3fe608060405234801561001057600080fd5b50600436106100365760003560e01c80636bdebcc91461003b5780638da5cb5b14610045575b600080fd5b610043610063565b005b61004d6100f4565b60405161005a9190610127565b60405180910390f35b60008054906101000a900473ffffffffffffffffffffffffffffffffffffffff1673ffffffffffffffffffffffffffffffffffffffff163373ffffffffffffffffffffffffffffffffffffffff16146100bb57600080fd5b60008054906101000a900473ffffffffffffffffffffffffffffffffffffffff1673ffffffffffffffffffffffffffffffffffffffff16ff5b60008054906101000a900473ffffffffffffffffffffffffffffffffffffffff1681565b61012181610142565b82525050565b600060208201905061013c6000830184610118565b92915050565b600061014d82610154565b9050919050565b600073ffffffffffffffffffffffffffffffffffffffff8216905091905056fea26469706673582212204e55e674986344bc65abbcca40edb4bc95e3835b97a8f7a9b849fc8d8c61366764736f6c63430008040033",
  "immutableReferences": {},
  "source": "// SPDX-License-Identifier: GPL-3.0\npragma solidity >=0.4.16 <=0.8.4;\n\ncontract ModifierFunction {\n    address public owner;\n\n    constructor() {\n        owner = msg.sender;\n    }\n\n    // 自定义函数,可以用来修饰别的函数 pre-condition  对函数进行预先处理\n    modifier ownerValidate() {\n        require(msg.sender == owner);\n        _; // 继续执行后续函数\n    }\n\n    function destory() public ownerValidate {\n        // require(owner == msg.sender); //使用modifier指定function 代替部分代码, 方便通用代码复用\n        selfdestruct((payable(owner)));\n    }\n}\n",
  "sourcePath": "/Users/zhangyu/workspace/labs/blockchain/smart_contract/masterEth/sol/contracts/ModifierFunction.sol",
  "compiler": {
    "name": "solc",
    "version": "0.8.4+commit.c7e474f2.Emscripten.clang"
  },
  "schemaVersion": "3.4.1",
  "updatedAt": "2021-06-07T08:07:55.719Z",
  "devdoc": {
    "kind": "dev",
    "methods": {},
    "version": 1
  },
  "userdoc": {
    "kind": "user",
    "methods": {},
    "version": 1
  }
}