{
  "contractName": "Sun",
  "abi": [
    {
      "inputs": [],
      "name": "destory",
      "outputs": [],
      "stateMutability": "nonpayable",
      "type": "function"
    },
    {
      "inputs": [],
      "name": "owner",
      "outputs": [
        {
          "internalType": "address",
          "name": "",
          "type": "address"
        }
      ],
      "stateMutability": "view",
      "type": "function"
    },
    {
      "inputs": [],
      "name": "inheritanceFn",
      "outputs": [],
      "stateMutability": "nonpayable",
      "type": "function"
    }
  ],
  "bytecode": "0x608060405234801561001057600080fd5b50336000806101000a81548173ffffffffffffffffffffffffffffffffffffffff021916908373ffffffffffffffffffffffffffffffffffffffff160217905550610219806100606000396000f3fe608060405234801561001057600080fd5b50600436106100415760003560e01c80636bdebcc9146100465780638da5cb5b14610050578063dcbeb2b51461006e575b600080fd5b61004e610078565b005b610058610109565b6040516100659190610196565b60405180910390f35b61007661012d565b005b60008054906101000a900473ffffffffffffffffffffffffffffffffffffffff1673ffffffffffffffffffffffffffffffffffffffff163373ffffffffffffffffffffffffffffffffffffffff16146100d057600080fd5b60008054906101000a900473ffffffffffffffffffffffffffffffffffffffff1673ffffffffffffffffffffffffffffffffffffffff16ff5b60008054906101000a900473ffffffffffffffffffffffffffffffffffffffff1681565b60008054906101000a900473ffffffffffffffffffffffffffffffffffffffff1673ffffffffffffffffffffffffffffffffffffffff163373ffffffffffffffffffffffffffffffffffffffff161461018557600080fd5b565b610190816101b1565b82525050565b60006020820190506101ab6000830184610187565b92915050565b60006101bc826101c3565b9050919050565b600073ffffffffffffffffffffffffffffffffffffffff8216905091905056fea26469706673582212201d13b1e4db84d440d08a8ae0392487227b472620002462d85eed2d18d9ee1b1964736f6c63430008040033",
  "immutableReferences": {},
  "source": "// SPDX-License-Identifier: GPL-3.0\npragma solidity >=0.4.16 <=0.8.4;\nimport \"./ModifierFunction.sol\"; // 引入依赖的sol对象合约\n\ncontract Sun is ModifierFunction {\n    function inheritanceFn() public ownerValidate {}\n}\n",
  "sourcePath": "/Users/zhangyu/workspace/labs/blockchain/smart_contract/masterEth/sol/contracts/Inheritance.sol",
  "compiler": {
    "name": "solc",
    "version": "0.8.4+commit.c7e474f2.Emscripten.clang"
  },
  "schemaVersion": "3.4.1",
  "updatedAt": "2021-06-07T08:07:55.717Z",
  "devdoc": {
    "kind": "dev",
    "methods": {},
    "version": 1
  },
  "userdoc": {
    "kind": "user",
    "methods": {},
    "version": 1
  }
}